:020000040800F2
:1000000000200020E51D0008DD180008DF180008AA
:1000100000000000000000000000000000000000E0
:10002000000000000000000000000000E1180008CF
:100030000000000000000000E3180008E5180008B8
:10004000351E000800000000351E0008351E00089F
:10005000351E0008351E0008351E0008351E000834
:1000600000000000ED180008351E0008351E0008CD
:10007000351E0008351E0008351E0008000000006F
:10008000351E0008351E000800000000351E00085F
:10009000351E0008351E0008351E0008351E0008F4
:1000A000351E0008351E0008351E0008351E0008E4
:1000B000351E0008000000000000000000000000E5
:1000C00010B5064C2378002B07D1054B002B02D02E
:1000D000044800E000BF0123237010BD040000208D
:1000E00000000000A41E0008044B10B5002B03D034
:1000F0000349044800E000BF10BDC04600000000F6
:1001000008000020A41E000802B4714649084900F6
:10011000095649008E4402BC7047C04602B471467D
:1001200049084900095C49008E4402BC7047C0463A
:10013000002243088B4274D303098B425FD3030A26
:100140008B4244D3030B8B4228D3030C8B420DD339
:10015000FF22090212BA030C8B4202D312120902C7
:1001600065D0030B8B4219D300E0090AC30B8B4205
:1001700001D3CB03C01A5241830B8B4201D38B03B3
:10018000C01A5241430B8B4201D34B03C01A524158
:10019000030B8B4201D30B03C01A5241C30A8B429B
:1001A00001D3CB02C01A5241830A8B4201D38B0286
:1001B000C01A5241430A8B4201D34B02C01A52412A
:1001C000030A8B4201D30B02C01A5241CDD2C3099C
:1001D0008B4201D3CB01C01A524183098B4201D318
:1001E0008B01C01A524143098B4201D34B01C01A03
:1001F000524103098B4201D30B01C01A5241C3087B
:100200008B4201D3CB00C01A524183088B4201D3E9
:100210008B00C01A524143088B4201D34B00C01AD5
:100220005241411A00D20146524110467047FFE741
:1002300001B5002000F006F802BDC0460029F7D045
:1002400076E770477047C04610B5040000F076FDB1
:10025000FA218900FFF76CFF00F07CF901200022F1
:100260002100404200F03CF9002010BD1023064A56
:1002700010B5116800200B431360FFF7E5FF01F094
:1002800015FB002010BDC04600200240024A136842
:10029000013313607047C04620000020014B1868EE
:1002A0007047C04620000020F8B504000120002C53
:1002B00072D0636C002B06D122004032A364200070
:1002C000137001F007FA636CDB0600D579E00422B5
:1002D00023689868104000D073E0626C4249114076
:1002E00002220A43032162649A680A40012A00D06C
:1002F0006DE01968114202D1DA68120467D5DA6834
:100300003A49256A0A40DA60A2696F039103E269FB
:10031000D2031143626B013A561EB2411603E268E2
:10032000114322690F43022A00D10420226B616A23
:1003300052003A4332430243012904D1002D2CD10B
:10034000802149020A43C220A16AFF30814202D0C3
:10035000E06A01430A438020D96840051143D9600F
:10036000A16B814202D0481E062807D8072558698C
:100370002940A8435861586901435961DB681C4909
:100380000B409A4211D100200322A064636C934376
:100390001A00012313436364F8BD2020656C2843D1
:1003A0006064A06C0143A164CDE71222636C01205C
:1003B00093431A00102313436364A36C0343A364A1
:1003C000EAE71023626C012013436364E4E7182119
:1003D000DA688A43A1680A43DA60196962688900A9
:1003E0008908114319618AE7FDFEFFFF1902FEFF2C
:1003F000E7FF3F83F7B500230400019340342378DF
:1004000005000220012B2BD001232A68AE6B9068D7
:100410002370400752D42C484F680D6887423BD068
:10042000AB4018008023976A5B05384390629E4278
:100430000FD0013E062E0CD98B6807215069084069
:10044000834206D050690B40884350615069034392
:1004500053612B00103B012B03D900200023237094
:10046000FEBD1A4B80221968102D13D0D2030A4307
:100470001A60102DF1D1164B16491868FFF758FE77
:100480000A2358430190019B002BE6D0019B013BBE
:100490000193F8E71204EAE7AB40916A99432B0015
:1004A000103B9162012BD8D8084B1A68102D03D04D
:1004B00009490A401A60D0E70849FAE72022696C26
:1004C00018000A436A64C9E70110000008270140C8
:1004D0000000002040420F00FFFFBFFFFFFF7FFF33
:1004E00070B58901002814DA0F23C0B20340083B1D
:1004F000114A9B089B009B18032210409040FC323D
:100500001500114085408140DC69AC432143D9612D
:1005100070BD032583082840A840FC352E00074AFB
:100520009B009B18C02286402940814092009C5825
:10053000B44321439950EBE700ED00E000E100E017
:100540001F2318401E3B8340014A13607047C0467A
:1005500000E100E0094A431E012093420DD8C0216A
:10056000074A08485360036A09061B021B0A0B432B
:10057000036200200723906013607047FFFFFF00B5
:1005800010E000E000ED00E070B504000120002C58
:1005900028D002232068A51CEB770268124BA168C3
:1005A0001A4063680B43E1680B4321690B4361699F
:1005B0000B43A1690B43E1690B43134303600B4BEE
:1005C0001421C018FFF7B4FD094B80002064E363D9
:1005D00000200123A062E06220636063A063E4184E
:1005E000EB77E07770BDC0460FC0FFFFF8FFFDBF9F
:1005F00000000240F8B504273E00016CC26B8E403B
:10060000156803681C682E420DD03C420BD0196857
:10061000890602D41968B9431960C36A5660002B71
:1006200019D0984717E002273E008E402E4213D083
:100630003C4211D01968890606D40A241968A143DE
:1006400019600121C319D97756600022431CDA775B
:10065000836A9342E5D1F8BD082637008F403D42BA
:10066000F9D03442F7D00E251C68AC431C6001233E
:100670001C008C405460821C8363D3770022C31813
:10068000DA77036BE5E70000F0B50B6887B00293FB
:1006900000230191029ADA4001D107B0F0BD012296
:1006A0009A4003920399029A0A40009200D18CE08A
:1006B000019A1021526816008E43022E0ED1072592
:1006C0001D40AD000139A940DC08A4000419276AC7
:1006D0008F4301990969A9400F43276203245F00F2
:1006E000BC40E4430568013E2540AC460325154067
:1006F000BD4061460D430560012E0FD80199866803
:10070000CD682640BD40354385604668039915098C
:100710008E4301210D409D4035434560C5680199D8
:100720002C408D688021BD4049052C43C4600A429D
:100730004BD00121264C0326A5691E400D43A5611F
:10074000A4699D080C400594059C0F242149AD0027
:10075000B6006D18B4409021AF68C905A7430024C6
:1007600088420CD01C490134884208D01B4901340E
:10077000884204D01A490334884200D1023CB44074
:1007800000993C430E00AC60164CCD4327683E43B5
:10079000D10301D43E002E4026606768009E3E4390
:1007A000910301D43E002E406660A768009E3E4340
:1007B000D10201D43E002E40A660E668009F374378
:1007C000920201D42E403700E760013362E7C04651
:1007D00000100240000001400004004800080048EA
:1007E000000C004800040140F0B5036885B0050026
:1007F000DB072FD42B689B0700D581E02B681B07F4
:1008000000D5BCE02B685B0700D5DFE02B68DB067A
:100810001AD56A69B54C0423012A00D04BE1616BFB
:1008200002260B436363636B1A436263FFF736FD73
:100830000700636B334200D136E1F821626BAB698C
:100840008A43DB0013436363296A002900D059E11E
:10085000002013E00C21A54C62680A40042A06D04F
:1008600063680B40082B0BD16368DB0308D5236852
:100870009B03BFD56B68002BBCD1012005B0F0BD38
:100880006B68012B13D1802322685B021343236022
:10089000FFF704FD80260700B60223683342A9D182
:1008A000FFF7FCFCC01B6428F7D90320E6E7002B08
:1008B00016D123688E4A80261340236023688D4A10
:1008C000B60213402360FFF7E9FC070023683342B8
:1008D00000D18FE7FFF7E2FCC01B6428F6D9E4E7FC
:1008E000052B05D180232268DB0213432360CAE76E
:1008F00023687F4A1340236023687E4A1340C6E77B
:100900000C227A4C6368134206D063681340082BAC
:1009100010D16368DB030DD423689B0702D5EB6815
:10092000012BAAD1F82122682B698A43DB001343EB
:10093000236063E7EA680123002A0FD022680226B9
:1009400013432360FFF7AAFC070023683342E9D171
:10095000FFF7A4FCC01B0228F7D9A6E722680226ED
:100960009A432260FFF79AFC07002368334200D1C4
:1009700044E7FFF793FCC01B0228F6D995E7EA6924
:1009800001235A4C002A10D0626A02261343636284
:10099000FFF784FC0700636A334200D032E7FFF7B9
:1009A0007DFCC01B0228F6D97FE7626A02269A43C3
:1009B0006262FFF773FC0700636A334200D121E7EC
:1009C000FFF76CFCC01B0228F6D96EE780220021DD
:1009D000464C5205E3690091134208D1E369134381
:1009E000E361E36913400393039B01230093802792
:1009F000414E7F0033683B4206D0AB68012B13D1D8
:100A0000226A1343236230E033683B433360FFF7CD
:100A100045FC019033683B42EFD1FFF73FFC019B5F
:100A2000C01A6428F6D940E70122002B14D1236AAA
:100A3000022793432362236A033293432362FFF71F
:100A40002DFC0600236A3B4225D0FFF727FC2B4BE9
:100A5000801B9842F6D928E7052B0BD1216A013B70
:100A60000B432362236A1A432262FFF717FC022713
:100A700006000DE0236A934304222362236A934312
:100A8000C0E7FFF70BFC1D4B801B984200D90CE719
:100A9000236A3B42F5D0009B012B00D0B6E6E36908
:100AA000174A1340E361B1E6FFF7F8FBC01B0228C9
:100AB00000D8BEE6F9E6053203D1626B9A43626361
:100AC000BBE6626B0226134301226363636B9343AD
:100AD0006363FFF7E3FB0700636B334200D1B3E6C8
:100AE000FFF7DCFBC01B0228F6D9DEE6001002404F
:100AF000FFFFFEFFFFFFFBFF0070004088130000B8
:100B0000FFFFFFEF0C22264C012063681340082BE7
:100B100000D1B3E62368234A1340236002292FD172
:100B2000FFF7BCFB80260700B6042368334221D1BF
:100B30000F22E36A9343EA6A1343E362696AAB6A8A
:100B400062680B43184980250A4013436360802381
:100B500022685B0413432360FFF7A0FB0600AD048B
:100B600023682B4200D073E6FFF798FB801B022816
:100B7000F6D99AE6FFF792FBC01B0228D5D994E676
:100B8000FFF78CFB80250600AD0423682B4200D1C3
:100B90005EE6FFF783FB801B0228F6D985E6C04698
:100BA00000100240FFFFFFFEFFFFC2FF70B5144CB4
:100BB00088B010222100684601F062F9210004ADDE
:100BC00010221031280001F05BF90C220D4E7368E1
:100BD0001A40082A11D10F206A46990C0140545C32
:100BE000F26A0240A95CDB0305D50748FFF7A0FACB
:100BF000604308B070BD0548FAE70348F9E7C0460E
:100C0000BC1E00080010024000127A0000093D00DE
:100C1000F7B50122434C060023680F0013408B42B6
:100C20001CD33268930723D4D30729D40123226825
:100C30001A40974267D333683B4C5B076AD4FFF78F
:100C4000B5FF6368394A1B061B0FD35CD840384B8D
:100C500018600020FFF7F8FA002008E023689343AB
:100C60000B432360236813409942DAD00120FEBD74
:100C7000F0202D494B688343B06803434B60D3E7B2
:100C8000294D72682B68012A1AD19B03EED50321E6
:100C90006B688B4313436B60FFF700FB7368019035
:100CA000012B15D10C226B681340042BBED0FFF72B
:100CB000F5FA019BC01A1F4B9842F3D90320D6E7DF
:100CC000022A02D19B01E2D4D0E79B07DFD4CDE713
:100CD000022B12D00C226B681342A7D0FFF7DEFA6A
:100CE000019BC01A134B9842F4D9E7E7FFF7D6FAF5
:100CF000019BC01A0F4B9842E0D80C226B6813403E
:100D0000082BF3D192E722689A43226022681A42A4
:100D1000ACD190E76368084A1340F26813436360FC
:100D20008DE7C0460020024000100240E01E00088F
:100D30000000002088130000FFF8FFFF014B186837
:100D40007047C04600000020044B054A5B685B0505
:100D50005B0FD35C034A1068D84070470010024014
:100D6000F01E000800000020F0B5036885B0050003
:100D7000DB0328D580220021374C5205E36900911E
:100D8000134208D1E3691343E361E369134003931A
:100D9000039B012300938027304E7F0033683B4242
:100DA00026D0C022236A920013402D4E32D1236AEE
:100DB0001E406B681E43009B2662012B03D1E36932
:100DC000284A1340E3612A68D30706D50320224945
:100DD0000B6B8343A86803430B630020930617D56E
:100DE00010211D4A136B8B43E9680B4313630FE01B
:100DF00033683B433360FFF751FA019033683B425D
:100E0000CFD1FFF74BFA019BC01A6428F6D9032013
:100E100005B0F0BD69680A409342C8D08023226AB9
:100E2000206A11005B0203432362236A0E483140AB
:100E3000034023622162D307B9D5FFF72FFA0700D9
:100E40000222236A1342B2D1FFF728FA074BC01BD4
:100E50009842F5D9DBE7C046001002400070004020
:100E6000FFFCFFFFFFFFFFEFFFFFFEFF8813000007
:100E70000122036A70B593430362036A446885697B
:100E8000723295430A681543022293438A681343DA
:100E9000144A904208D0144EB04205D0134EB042CE
:100EA00002D0134EB04216D10826B343CE68334366
:100EB0000426B343904208D00B4A904205D00B4A17
:100EC000904202D00A4A904205D10A4A8E692240D5
:100ED0004C69344314434A68446085614263036249
:100EE00070BDC046002C014000400140004401405C
:100EF00000480140FFFCFFFF70B57325036A174AE5
:100F000013400362036A4268C469AC430D682C4312
:100F1000134D2B408D682D022B43124DA8420ED14C
:100F2000114D1D40CB681B022B43104D2B40104D23
:100F30004E6915408A69324312012A4308E00D4D7B
:100F4000A842F4D00C4DA842F1D00C4DA842EED0EE
:100F500042604A68C461C263036270BDFFFEFFFF66
:100F6000FFFDFFFF002C0140FFF7FFFFFFFBFFFF2E
:100F7000FFCFFFFF00400140004401400048014016
:100F8000036A144A30B513400362026A124C436884
:100F9000C56925400C6824022543104C22408C680A
:100FA000240322430E4CA04208D00E4CA04205D090
:100FB0000D4CA04202D00D4CA04204D10C4C234059
:100FC0004C69A401234343604B68C561036402621A
:100FD00030BDC046FFEFFFFFFF8CFFFFFFDFFFFFCD
:100FE000002C014000400140004401400048014005
:100FF000FFBFFFFF1C4A10B50368904202D01B4C94
:10100000A04208D17024A3434C68234390420ED0E1
:10101000164CA0420BD0164CA04208D0154CA04252
:1010200005D0154CA04202D0144CA04203D1144C60
:101030002340CC6823438024A3434C6923430360AB
:101040008B68C3620B688362904208D0094B984258
:1010500005D0094B984202D0084B984201D10B6948
:1010600003630123436110BD002C014000040040D4
:101070000020004000400140004401400048014081
:10108000FFFCFFFF70B504000120002C14D02500E8
:101090003D352B78DBB2002B05D122003C3213709A
:1010A000200000F05BFC022320682B70211DFFF75D
:1010B000A1FF012300202B7070BD00001022036AE5
:1010C00070B593430362026A164D436884692C40ED
:1010D0000D682D022C432025AA438D682D012A433B
:1010E000114DA8420FD18025AA431500CA681201EC
:1010F0002A434025AA430D4D4E691D408B69334359
:101100009B002B4308E00A4DA842F4D0094DA842A9
:10111000F1D0094DA842EED043604B6884618363EF
:10112000026270BDFF8CFFFF002C0140FFF3FFFF48
:10113000004001400044014000480140F8B506006D
:1011400002233C360D00317804001800012925D017
:10115000270001213D3731703B700C2A1AD810004E
:10116000FEF7DCFF071818181D1818182F18181884
:10117000410029002068FFF77BFE08222368996957
:101180000A4304219A619A698A439A619A69296992
:101190000A439A61012300203B703070F8BD29009A
:1011A0002068FFF78BFF80222368120199690A43A8
:1011B0009A619A6915490A409A612A6999691202E5
:1011C000E6E729002068FFF797FE08222368D9691F
:1011D0000A430421DA61DA698A43DA61DA69296942
:1011E0000A43DA61D6E729002068FFF7C9FE8022AA
:1011F00023681201D9690A43DA61DA6903490A40AE
:10120000DA612A69D9691202EAE7C046FFFBFFFFEB
:1012100010B501248C408A40036AA3430362036A29
:101220001A43026210BD000010B504000C290ED84C
:101230000800FEF773FF070C0C0C280C0C0C2C0C90
:101240000C0C300002232268D0680343D3600122D3
:101250002068FFF7DDFF2368114A934208D0114A46
:10126000934205D0104A934202D0104A934204D1CF
:101270008022596C12020A435A6401221968002024
:101280000A431A6010BD22680423D068DDE7226893
:101290000823D068D9E722681023D068D5E7C04674
:1012A000002C014000400140004401400048014042
:1012B00030B504003C34227803000220012A17D004
:1012C0001D001B683D3528705A686E3082435A6095
:1012D0005A6808684968024380205A609A688243C5
:1012E0009A609A6800200A439A6001232B7020704C
:1012F00030BD000030B504003C34237802000220E9
:10130000012B24D015003D352870114BC868126898
:101310000340886803430F480340486803430E486E
:101320000340086803430D480340086903430C4821
:1013300003404869896903430A4803400A480B434C
:1013400003400B435364002001232B70207030BDF9
:10135000FFFCFFFFFFFBFFFFFFF7FFFFFFEFFFFFBC
:10136000FFDFFFFFFFBFFFFFFF7FFFFF70B5040040
:101370000568C269836800692968034360693F4E54
:1013800003433F48134301400B432B606B683D49C7
:10139000206A0B40E1680B436B60A369A9680343B3
:1013A000394801400B43AB6080231B02B54210D18A
:1013B00003203649096B01403548405C9A4213D0FE
:1013C000082858D8FEF7AAFE375742574B575757A9
:1013D000500030498D424CD19A422CD1FFF7B4FCD9
:1013E000636840005B080BE0082821D8FEF78CFEFC
:1013F000F6200520182020201B0063685808264B83
:10140000C0186168FEF794FE83B200200F22190015
:1014100091430A001B0721685B0F1343CB6070BD2B
:10142000FFF7C4FBDCE76368580880235B02E7E74B
:1014300001200023EAE7FFF787FC61684B081818D2
:10144000FEF776FE80B2E8600020E8E76168134BA3
:101450004808C018FEF76CFE80B2F060F4E7FFF7B2
:10146000A5FB61684B08F4E7802361681B0248080C
:10147000EFE79A42DCD00120D1E7C04600380140B6
:10148000F369FFFFFFCFFFFFFFF4FFFF00100240F3
:10149000DC1E0008004400400024F40000127A0022
:1014A000436A30B5DA0706D50168284C4A682240FD
:1014B000846A22434A609A0706D50168244C4A6828
:1014C0002240C46A22434A605A0706D50168214C6B
:1014D0004A682240046B22434A601A0706D5016815
:1014E0001D4C4A682240446B22434A60DA0606D506
:1014F00001681A4C8A682240846B22438A609A06EB
:1015000006D50168164C8A682240C46B22438A6063
:101510005A0610D50168134D4A68046C2A402243CC
:101520004A6080225203944205D14A680E4C224000
:10153000446C22434A601B0606D502680B49536877
:101540000B40816C0B43536030BDC046FFFFFDFF75
:10155000FFFFFEFFFFFFFBFFFF7FFFFFFFEFFFFF30
:10156000FFDFFFFFFFFFEFFFFFFF9FFFFFFFF7FF23
:1015700070B5041E01D1012070BD050069352B78BE
:10158000DBB2002B04D102006832137000F0E0FBE4
:101590002423012122682B70136820008B431360E1
:1015A000FFF7E4FE0128E6D0636A002B02D020009A
:1015B000FFF776FF23680B495A6800200A4008218C
:1015C0005A609A688A439A60012219680A431A602D
:1015D00022002023E0666A3268342B70137020707A
:1015E000CAE7C046FFF7FFFF30B585B00C220021E7
:1015F00001A800F04EFC0422344C354B6261FC32F1
:10160000A2628022002523600123D20020006560B1
:10161000A560E5602361A561E56123626562E26220
:1016200025636363FEF740FEA84201D000F03CF959
:1016300080235B010293802301A95B0520000195B3
:101640000393FEF7D7FE002801D000F02DF9012307
:1016500001A920000193FEF7CDFE002801D000F083
:1016600023F9022301A920000193FEF7C3FE0028FD
:1016700001D000F019F9032301A920000193FEF71E
:10168000B9FE002801D000F00FF9042301A92000C1
:101690000193FEF7AFFE002801D000F005F9052305
:1016A00001A920000193FEF7A5FE002801D000F05B
:1016B000FBF8062301A920000193FEF79BFE0028FA
:1016C00001D000F0F1F805B030BDC046280100207F
:1016D0000024014030B5050089B01422002103A880
:1016E00000F0D7FB1E4B2A689A4236D180201D4B52
:1016F000800099690143996180219A6989020240B9
:101700000192019A5A6990200A435A615B69C005A7
:101710000B400293029B7F2303A903937C3B04931A
:10172000FEF7B2FF104C114B2000236000236360D2
:10173000A3608033E360803323618023DB00636137
:101740002023A36180239B01E361FEF71DFF002896
:1017500001D000F0A9F8EC63656209B030BDC04665
:101760000024014000100240E40000200800024074
:1017700007B50120084A51690143516153690022AC
:101780000340019311000830019BFEF7A9FE0920D8
:10179000FEF7D6FE07BDC0460010024000B589B076
:1017A0001422002103A800F074FB8020174B0003D3
:1017B0005969014359615A69024080200092009A98
:1017C000596980020143596180215A69C902024066
:1017D0000192019A5A690E480A435A615B690B40AB
:1017E0000293029B802303A99B010393FEF74CFF06
:1017F000E0239B010393074B03A9049301230648AD
:101800000593FEF741FF09B000BDC046001002403D
:1018100000080048000011100004004830B51025F1
:1018200095B03022002108A800F033FB2A000021E7
:10183000684600F02EFB2A00002104A800F029FBD6
:1018400012230893802301240C950E959B030E3DD3
:1018500008A8109512930B940D94FEF7C5FF07236B
:101860000195002521006846009302950395FFF736
:10187000CFF904A804940695FFF776FA15B030BDA9
:1018800010B5FEF7F3FCFFF7C9FFFFF787FFFFF77F
:101890006FFFFFF7A9FE00F0FDF800F06DF900F012
:1018A0003BFA00F0C7F9FEE77047000001200A4B41
:1018B00082B099690143996180219A694905024082
:1018C0000092009ADA690A43DA61DB690B400193FE
:1018D000019B02B07047C046001002407047FEE70F
:1018E0007047704710B5FEF7D1FC10BD10B5024827
:1018F000FEF780FE10BDC046E40000200121114B20
:1019000011481A680A431A605A6802405A601A68F5
:101910000E4802401A601A680D4802401A605A6860
:101920000C4802400F205A60DA6A8243DA621A6B6E
:10193000094802401A635A6B8A435A6300229A602C
:101940007047C046001002400CB8FF08FFFFF6FECB
:10195000FFFFFBFFFFFFC0FFECFEFFFF0368154A20
:1019600084B093420BD18020134A00019169014356
:101970009161936903400193019B04B070470F4A42
:10198000934209D102200C4AD1690143D161D36944
:1019900003400293029BF0E7094A9342EDD1802075
:1019A000054A4002916901439161936903400393A1
:1019B000039BE2E7002C01400010024000040040BD
:1019C0000040014010B5040088B01422002103A893
:1019D00000F05FFA2368294A934217D18020284AF1
:1019E0008002516901435161536903A90340009387
:1019F000009BC02390205B0003937F3BFF3B04933D
:101A00000793C005FEF740FE08B010BD1D4A934283
:101A100010D180201A4A0003516901435161536972
:101A200003A903400193019BC0230393BE3B04938E
:101A30001548E7E7154A9342E6D18020104AC002D4
:101A40005169022401435161536903A90340029380
:101A5000029B8023DB01039301230D480793049429
:101A6000FEF712FE80231B020393002305930693C7
:101A700003330494079303A90548C3E7002C0140EE
:101A800000100240000400400008004800400140EF
:101A90000004004830B593B00822002102A800F0ED
:101AA000F8F91C22002104A800F0F3F91C220021FF
:101AB0000BA800F0EEF92D4C2D4B00252360FA23E6
:101AC0001B01E360802320006560A56025616561DE
:101AD000A361FFF7D7FAA84201D0FFF7E5FE02A9FC
:101AE000200002950395FFF7E3FB002801D0FFF7E4
:101AF000DBFE6023002504933133FF332A0004A961
:101B00002000059306950795089509950A95FFF716
:101B100015FBA84201D0FFF7C7FE0A230E938023CE
:101B20000BA99B0120000B950C950D950F9510931B
:101B30001195FFF7DFFB002801D0FFF7B5FE20006D
:101B4000FFF740FF80200B4A00019169014391613A
:101B500093690021034001932000019BFFF764FB80
:101B6000002801D0FFF7A0FE13B030BDA400002074
:101B7000002C01400010024030B58BB0082200213B
:101B800001A800F086F91C22002103A800F081F9C9
:101B9000254C264B00252360FA2320001B0165609D
:101BA000A560E3602561A561FFF76CFAA84201D04A
:101BB000FFF77AFE01A9200001950295FFF778FB57
:101BC000002801D0FFF770FE602300220393313319
:101BD000FF3303A92000049305920792FFF7AEFAA2
:101BE000002801D0FFF760FE042203A92000FFF7C0
:101BF000A5FA002801D0FFF757FE2000FFF7E2FE0C
:101C000002200B4AD1690143D161D369002103400D
:101C100000932000009BFFF707FB002801D0FFF78F
:101C200043FE0BB030BDC0466400002000040040FD
:101C30000010024030B593B00822002102A800F045
:101C400028F91C22002104A800F023F91C220021FD
:101C50000BA800F01EF92D4C2D4B00252360FA2314
:101C600020001B016560A560E36025616561A561D9
:101C7000FFF708FAA84201D0FFF716FE02A92000DC
:101C800002950395FFF714FB002801D0FFF70CFE27
:101C90006023002504933133FF332A0004A9200078
:101CA000059306950795089509950A95FFF746FA55
:101CB000A84201D0FFF7F8FD0A230E9380230BA959
:101CC0009B0120000B950C950D950F951093119588
:101CD000FFF710FB002801D0FFF7E6FD2000FFF71B
:101CE00071FE80200B4A4002916901439161936922
:101CF0000021034001932000019BFFF795FA002883
:101D000001D0FFF7D1FD13B030BDC0462400002044
:101D100000400140001002400B480C4B10B503601E
:101D200096231B0243600C22002342618360C36040
:101D300003618361C36103624362FFF719FC0028FA
:101D400001D0FFF7B1FD10BD740100200038014043
:101D500030B5040089B01422002103A800F099F8DE
:101D60001D4B22689A4234D180201C4BC0019969D6
:101D70000225014399619A69032402408020009260
:101D8000009A596980020143596180215A69C90248
:101D900002400192019A5A6990200A435A615B6994
:101DA000C0050B400293029B8023DB0003930123B9
:101DB00003A9079304950694FEF766FC402303935A
:101DC000002303A906480495059306940793FEF79C
:101DD0005BFC09B030BDC046003801400010024035
:101DE000000400480D4885460D480E490E4A002360
:101DF00002E0D458C4500433C4188C42F9D30B4ABF
:101E00000B4C002301E013600432A242FBD3FFF726
:101E100075FD00F011F8FFF733FDFEE7002000200C
:101E20000000002004000020001F00080400002023
:101E3000E4010020FEE7000070B500260C4D0D4CBB
:101E4000641BA410A64209D1002600F02BF80A4D0D
:101E50000A4C641BA410A64205D170BDB300EB5818
:101E600098470136EEE7B300EB5898470136F2E7A2
:101E7000F81E0008F81E0008F81E0008FC1E0008E6
:101E8000002310B59A4200D110BDCC5CC45401337C
:101E9000F8E703008218934200D1704719700133AC
:101EA000F9E70000F8B5C046F8BC08BC9E4670478C
:0C1EB000F8B5C046F8BC08BC9E46704760
:101EBC0002030405060708090A0B0C0D0E0F10107F
:101ECC000102030405060708090A0B0C0D0E0F107E
:101EDC0000040802000000000000000001020304DE
:0C1EEC00060708090000000001020304C2
:041EF800E9000008F5
:041EFC00C100000819
:041F000000127A0051
:0400000508001DE5ED
:00000001FF
